:100000000C9446000C9458000C9458000C94580022
:100010000C9458000C9458000C9458000C94580000
:100020000C9458000C9458000C9458000C945800F0
:100030000C945A000C9458000C9458000C945800DE
:100040000C9458000C9458000C9458000C945800D0
:100050000C9458000C9458000C9458000C945800C0
:100060000C9458000C9458000C9458000C945800B0
:100070000C9458000C9458000C9458000C945800A0
:100080000C9458000C9458000C94580011241FBE76
:10009000CFEFD0E1DEBFCDBF11E0A0E0B1E001C005
:1000A0001D92A130B107E1F70E94A6000C94DD007B
:1000B0000C9400001F920F920FB60F9211242F93F1
:1000C0003F938F939F93EF93FF93DF93CF93CDB79E
:1000D000DEB7F89483E290E0FC018081803821F45F
:1000E00081E08093000108C083E290E0FC01808100
:1000F000803111F41092000180910001882351F4A5
:1001000083E290E023E230E0F9012081220FFC013C
:10011000208309C083E290E023E230E0F9012081EE
:100120002695FC0120838CE490E0FC011182108272
:100130007894CF91DF91FF91EF919F918F913F91B3
:100140002F910F900FBE0F901F901895DF93CF93B4
:10015000CDB7DEB782E290E022E230E0F901208103
:10016000206FFC01208383E290E023E230E0F9017C
:1001700020812061FC012083F8948EE490E02EE43D
:1001800030E0F90120812560FC0120838AE490E0C1
:1001900020E034E0FC01318320838CE490E0FC011A
:1001A0001182108287E590E027E530E0F901208197
:0E01B0002061FC0120837894FFCFF894FFCFEC
:00000001FF
