:100000000C9446000C9450000C9450000C9450003A
:100010000C9450000C9450000C9450000C94500020
:100020000C9450000C9450000C9450000C94500010
:100030000C9450000C9450000C9450000C94500000
:100040000C9450000C9452000C9450000C945000EE
:100050000C9450000C9450000C9450000C945000E0
:100060000C9450000C9450000C9450000C945000D0
:100070000C9450000C9450000C9450000C945000C0
:100080000C9450000C9450000C94500011241FBE8E
:10009000CFEFD0E1DEBFCDBF0E9462000C946B00B9
:1000A0000C9400001F920F920FB60F9211248F93A1
:1000B000F8948FB183B978948F910F900FBE0F9001
:1000C0001F90189524E096E081EDF89422B997BB33
:0A00D0008DB97894FACFF894FFCFB1
:00000001FF
