:100000000C9446000C9450000C9450000C9450003A
:100010000C9450000C9450000C9450000C94500020
:100020000C9450000C9450000C9450000C94500010
:100030000C9450000C9450000C9450000C94500000
:100040000C9450000C9452000C9450000C945000EE
:100050000C9450000C9450000C9450000C945000E0
:100060000C9450000C9450000C9450000C945000D0
:100070000C9450000C9450000C9450000C945000C0
:100080000C9450000C9450000C94500011241FBE8E
:10009000CFEFD0E1DEBFCDBF0E947C000C94920078
:1000A0000C9400001F920F920FB60F9211242F9301
:1000B0008F939F93EF93FF93DF93CF930F92CDB7DF
:1000C000DEB7F8948FE290E0FC018081898383E2BF
:1000D00090E0298122952F70FC01208378940F9065
:1000E000CF91DF91FF91EF919F918F912F910F9081
:1000F0000FBE0F901F901895DF93CF93CDB7DEB74B
:10010000F89482E290E024E0FC01208387E390E011
:1001100026E0FC0120838DE290E021EDFC012083AC
:080120007894EECFF894FFCFB4
:00000001FF
